:020000040800F2
:1000000000500020352300087D2300087D230008D0
:100010007D2300087D2300087D23000800000000E8
:100020000000000000000000000000007D23000828
:100030007D230008000000007D2300087D230008C8
:100040007D2300087D2300087D2300087D23000810
:100050007D2300087D2300087D2300087D23000800
:100060007D2300087D2300087D2300087D230008F0
:100070007D2300087D2300087D2300087D230008E0
:100080007D2300087D2300087D2300087D230008D0
:100090007D2300087D2300087D2300087D230008C0
:1000A0007D2300087D2300087D2300087D230008B0
:1000B0007D2300087D2300087D2300087D230008A0
:1000C0007D2300087D2300087D2300087D23000890
:1000D0007D2300087D2300087D2300087D23000880
:1000E0007D2300087D2300087D2300080000000018
:1000F0000000000000000000000000000000000000
:0C01000000000000000000005FF808F1A3
:1001100081F0004102E000BF83F0004330B54FEAB8
:1001200041044FEA430594EA050F08BF90EA020F25
:100130001FBF54EA000C55EA020C7FEA645C7FEAB8
:10014000655C00F0E2804FEA5454D4EB5555B8BFDB
:100150006D420CDD2C4480EA020281EA030382EA4C
:10016000000083EA010180EA020281EA0303362DDE
:1001700088BF30BD11F0004F4FEA01314FF4801CB1
:100180004CEA113102D0404261EB410113F0004FC3
:100190004FEA03334CEA133302D0524263EB43037A
:1001A00094EA050F00F0A780A4F10104D5F1200E18
:1001B0000DDB02FA0EFC22FA05F2801841F1000173
:1001C00003FA0EF2801843FA05F359410EE0A5F147
:1001D00020050EF1200E012A03FA0EFC28BF4CF078
:1001E000020C43FA05F3C01851EBE37101F000452E
:1001F00007D54FF0000EDCF1000C7EEB00006EEB3B
:100200000101B1F5801F1BD3B1F5001F0CD34908C4
:100210005FEA30004FEA3C0C04F101044FEA44521B
:1002200012F5800F80F09A80BCF1004F08BF5FEAA2
:10023000500C50F1000041EB045141EA050130BD82
:100240005FEA4C0C404141EB0101013C28BFB1F594
:10025000801FE9D291F0000F04BF01460020B1FADF
:1002600081F308BF2033A3F10B03B3F120020CDAB2
:100270000C3208DD02F1140CC2F10C0201FA0CF090
:1002800021FA02F10CE002F11402D8BFC2F1200CF5
:1002900001FA02F120FA0CFCDCBF41EA0C019040AB
:1002A000E41AA2BF01EB0451294330BD6FEA0404F4
:1002B0001F3C1CDA0C340EDC04F11404C4F12002DF
:1002C00020FA04F001FA02F340EA030021FA04F3F1
:1002D00045EA030130BDC4F10C04C4F1200220FA48
:1002E00002F001FA04F340EA0300294630BD21FA86
:1002F00004F0294630BD94F0000F83F4801306BF4C
:1003000081F480110134013D4EE77FEA645C18BF3F
:100310007FEA655C29D094EA050F08BF90EA020FD6
:1003200005D054EA000C04BF1946104630BD91EACE
:10033000030F1EBF0021002030BD5FEA545C05D1D1
:100340004000494128BF41F0004130BD14F5800410
:100350003CBF01F5801130BD01F0004545F0FE4184
:1003600041F470014FF0000030BD7FEA645C1ABFB9
:10037000194610467FEA655C1CBF0B46024650EAF0
:10038000013406BF52EA033591EA030F41F400211C
:1003900030BD00BF90F0000F04BF0021704730B5A2
:1003A0004FF4806404F132044FF000054FF0000177
:1003B00050E700BF90F0000F04BF0021704730B538
:1003C0004FF4806404F1320410F0004548BF40420D
:1003D0004FF000013EE700BF42004FEAE2014FEA62
:1003E00031014FEA02701FBF12F07F4393F07F4F3D
:1003F00081F06051704732F07F4208BF704793F040
:100400007F4F04BF41F40021704730B54FF4607452
:1004100001F0004521F000411CE700BF50EA010255
:1004200008BF704730B54FF000050AE050EA0102FE
:1004300008BF704730B511F0004502D5404261EB6E
:1004400041014FF4806404F132045FEA915C3FF4AF
:10045000D8AE4FF003025FEADC0C18BF03325FEA4C
:10046000DC0C18BF033202EBDC02C2F1200300FAFD
:1004700003FC20FA02F001FA03FE40EA0E0021FA22
:1004800002F11444BDE600BF4FEA4102B2F1E0437D
:1004900024BFB3F5001CDCF1FE5C0DD901F0004C6B
:1004A0004FEAC0024CEA5070B2F1004F40EB8300BB
:1004B00008BF20F00100704711F0804F21D113F1E7
:1004C0003872BCBF01F00040704741F480114FEA20
:1004D0005252C2F11802C2F1200C10FA0CF320FAA9
:1004E00002F018BF40F001004FEAC1234FEAD323C6
:1004F00003FA0CFC40EA0C0023FA02F34FEA430330
:10050000CCE77FEA625307D150EA01331EBF4FF0B8
:10051000FE4040F44000704701F0004040F0FE40D3
:1005200040F40000704700BF80F0004002E000BFD0
:1005300081F0004142001FBF5FEA410392EA030FCE
:100540007FEA226C7FEA236C6AD04FEA1262D2EB18
:100550001363C1BFD218414048404140B8BF5B421D
:10056000192B88BF704710F0004F40F4000020F0B6
:100570007F4018BF404211F0004F41F4000121F0CC
:100580007F4118BF494292EA030F3FD0A2F1010216
:1005900041FA03FC10EB0C00C3F1200301FA03F154
:1005A00000F0004302D5494260EB4000B0F5000F77
:1005B00013D3B0F1807F06D340084FEA310102F136
:1005C0000102FE2A51D2B1F1004F40EBC25008BFE8
:1005D00020F0010040EA03007047490040EB0000B2
:1005E000013A28BFB0F5000FEDD2B0FA80FCACF1B3
:1005F000080CB2EB0C0200FA0CF0AABF00EBC250E0
:1006000052421843BCBFD0401843704792F0000FCD
:1006100081F4000106BF80F400000132013BB5E720
:100620004FEA41037FEA226C18BF7FEA236C21D096
:1006300092EA030F04D092F0000F08BF08467047FB
:1006400090EA010F1CBF0020704712F07F4F04D1C9
:10065000400028BF40F00040704712F100723CBFDC
:1006600000F50000704700F0004343F0FE4040F406
:10067000000070477FEA226216BF08467FEA2363C4
:100680000146420206BF5FEA412390EA010F40F4AF
:10069000800070474FF0000304E000BF10F00043FB
:1006A00048BF40425FEA000C08BF704743F09643E2
:1006B00001464FF000001CE050EA010208BF7047FD
:1006C0004FF000030AE000BF50EA010208BF704784
:1006D00011F0004302D5404261EB41015FEA010C99
:1006E00002BF84460146002043F0B64308BFA3F191
:1006F0008053A3F50003BCFA8CF2083AA3EBC25373
:1007000010DB01FA02FC634400FA02FCC2F1200291
:10071000BCF1004F20FA02F243EB020008BF20F0C8
:100720000100704702F1200201FA02FCC2F120022E
:1007300050EA4C0021FA02F243EB020008BF20EA23
:10074000DC7070474FF0FF3C06E000BF4FF0010C3B
:1007500002E000BF4FF0010C4DF804CD4FEA40021B
:100760004FEA41037FEA226C18BF7FEA236C11D065
:1007700001B052EA530C18BF90EA010F58BFB2EB18
:10078000030088BFC81738BF6FEAE17018BF40F098
:10079000010070477FEA226C02D15FEA402C05D14C
:1007A0007FEA236CE4D15FEA412CE1D05DF8040BD1
:1007B000704700BF844608466146FFE70FB5FFF764
:1007C000C9FF002848BF10F1000F0FBD4DF808ED1C
:1007D000FFF7F4FF0CBF012000205DF808FB00BF0D
:1007E0004DF808EDFFF7EAFF34BF012000205DF867
:1007F00008FB00BF4DF808EDFFF7E0FF94BF0120B4
:1008000000205DF808FB00BF4DF808EDFFF7D2FFB0
:1008100094BF012000205DF808FB00BF4DF808EDF3
:10082000FFF7C8FF34BF012000205DF808FB00BFC0
:100830004FEA4002B2F1FE4F0FD34FF09E03B3EBED
:1008400012620DD94FEA002343F0004310F0004F2D
:1008500023FA02F018BF404270474FF00000704783
:1008600012F1610F01D1420205D110F0004008BF22
:100870006FF0004070474FF00000704700F1340106
:1008800091E838009C46A6464CF8045D90E8FF0FBE
:10089000E54600BD90EC210B704700BF80EC210BBA
:1008A000704700BF90EC200B704700BF80EC200B1E
:1008B000704700BFD0EC200B704700BFC0EC200B8E
:1008C000704700BFF0EC0201F0EC0211F0EC0221E5
:1008D000F0EC0231F0EC0241F0EC0251F0EC02617C
:1008E000F0EC0271F0EC0281F0EC0291F0EC02A16C
:1008F000F0EC02B1F0EC02C1F0EC02D1F0EC02E15C
:10090000F0EC02F1704700BFE0EC0201E0EC0211F4
:10091000E0EC0221E0EC0231E0EC0241E0EC0251BB
:10092000E0EC0261E0EC0271E0EC0281E0EC0291AB
:10093000E0EC02A1E0EC02B1E0EC02C1E0EC02D19B
:10094000E0EC02E1E0EC02F1704700BFB0FC018195
:10095000B0FC0191B0FC01A1B0FC01B1704700BF37
:10096000A0FC0181A0FC0191A0FC01A1A0FC01B1AF
:10097000704700BFEC4600B52DE900502DE9FF1F80
:100980004FF000032DE90C0001A901F06FFFDDF825
:1009900040E012B0704700BFEC4600B52DE90050B2
:1009A0002DE9FF1F4FF000032DE90C0001A901F014
:1009B0009DFFDDF840E012B0704700BFEC4600B587
:1009C0002DE900502DE9FF1F4FF000032DE90C0029
:1009D00001A901F0ADFFDDF840E012B0704700BFA3
:1009E000EC4600B52DE900502DE9FF1F4FF0000344
:1009F0002DE90C0001AB01F06DFFDDF840E012B015
:100A0000704700BFEC4600B52DE900502DE9FF1FEF
:100A10004FF000032DE90C0001AA01F0E3FFDDF81F
:100A200040E012B0704700BF034613F8012B002AC4
:100A3000FBD1181A0138704770B54FF0FF0C4CF419
:100A4000E06C1CEA11541DBF1CEA135594EA0C0F0C
:100A500095EA0C0F00F0DEF82C4481EA030621EA47
:100A60004C5123EA4C5350EA013518BF52EA033582
:100A700041F4801143F4801338D0A0FB02CE4FF034
:100A80000005E1FB02E506F00042E0FB03E54FF064
:100A90000006E1FB03569CF0000F18BF4EF0010E5C
:100AA000A4F1FF04B6F5007F64F5407404D25FEA58
:100AB0004E0E6D4146EB060642EAC62141EA55510B
:100AC0004FEAC52040EA5E504FEACE2EB4F1FD0C4D
:100AD00088BFBCF5E06F1ED8BEF1004F08BF5FEACB
:100AE000500E50F1000041EB045170BD06F000467D
:100AF00046EA010140EA020081EA0301B4EB5C042A
:100B0000C2BFD4EB0C0541EA045170BD41F4801121
:100B10004FF0000E013C00F3AB8014F1360FDEBF46
:100B2000002001F0004170BDC4F10004203C35DA22
:100B30000C341BDC04F11404C4F1200500FA05F3A5
:100B400020FA04F001FA05F240EA020001F0004246
:100B500021F0004110EBD37021FA04F642EB0601BC
:100B60005EEA430E08BF20EAD37070BDC4F10C04E6
:100B7000C4F1200500FA04F320FA05F001FA04F2AA
:100B800040EA020001F0004110EBD37041F1000196
:100B90005EEA430E08BF20EAD37070BDC4F12005A1
:100BA00000FA05F24EEA020E20FA04F301FA05F209
:100BB00043EA020321FA04F001F0004121FA04F2B1
:100BC00020EA020000EBD3705EEA430E08BF20EA81
:100BD000D37070BD94F0000F0FD101F000464000BB
:100BE00041EB010111F4801F08BF013CF7D041EA3D
:100BF000060195F0000F18BF704703F00046520041
:100C000043EB030313F4801F08BF013DF7D043EA11
:100C10000603704794EA0C0F0CEA135518BF95EAC7
:100C20000C0F0CD050EA410618BF52EA4306D1D14E
:100C300081EA030101F000414FF0000070BD50EA6D
:100C4000410606BF1046194652EA430619D094EAF7
:100C50000C0F02D150EA013613D195EA0C0F05D1E1
:100C600052EA03361CBF104619460AD181EA030135
:100C700001F0004141F0FE4141F470014FF00000ED
:100C800070BD41F0FE4141F4780170BD70B54FF088
:100C9000FF0C4CF4E06C1CEA11541DBF1CEA135508
:100CA00094EA0C0F95EA0C0F00F0A7F8A4EB0504EA
:100CB00081EA030E52EA03354FEA013100F08880E1
:100CC0004FEA03334FF0805545EA131343EA1263AA
:100CD0004FEA022245EA111545EA10654FEA00265F
:100CE0000EF000419D4208BF964244F1FD0404F518
:100CF000407402D25B084FEA3202B61A65EB030574
:100D00005B084FEA32024FF480104FF4002CB6EB30
:100D1000020E75EB030E22BFB61A754640EA0C00B0
:100D20005B084FEA3202B6EB020E75EB030E22BFF0
:100D3000B61A754640EA5C005B084FEA3202B6EB31
:100D4000020E75EB030E22BFB61A754640EA9C00F0
:100D50005B084FEA3202B6EB020E75EB030E22BFC0
:100D6000B61A754640EADC0055EA060E18D04FEA7E
:100D7000051545EA16754FEA06164FEAC30343EA1E
:100D800052734FEAC2025FEA1C1CC0D111F4801FEB
:100D90000BD141EA00014FF000004FF0004CB6E7E4
:100DA00011F4801F04BF01430020B4F1FD0C88BF83
:100DB000BCF5E06F3FF6AFAEB5EB030C04BFB6EB8E
:100DC000020C5FEA500C50F1000041EB045170BD81
:100DD0000EF0004E4EEA113114EB5C04C2BFD4EBAE
:100DE0000C0541EA045170BD41F480114FF0000E32
:100DF000013C90E645EA060E8DE60CEA135594EAAE
:100E00000C0F08BF95EA0C0F3FF43BAF94EA0C0FB0
:100E10000AD150EA01347FF434AF95EA0C0F7FF425
:100E200025AF104619462CE795EA0C0F06D152EA79
:100E300003353FF4FDAE1046194622E750EA41065D
:100E400018BF52EA43067FF4C5AE50EA41047FF46E
:100E50000DAF52EA43057FF4EBAE12E74FF0FF3CD3
:100E600006E000BF4FF0010C02E000BF4FF0010CA4
:100E70004DF804CD4FEA410C7FEA6C5C4FEA430C1D
:100E800018BF7FEA6C5C1BD001B050EA410C0CBF6C
:100E900052EA430C91EA030F02BF90EA020F0020CE
:100EA000704710F1000F91EA030F58BF994208BF35
:100EB00090422CBFD8176FEAE37040F001007047F2
:100EC0004FEA410C7FEA6C5C02D150EA013C07D149
:100ED0004FEA430C7FEA6C5CD6D152EA033CD3D094
:100EE0005DF8040B704700BF8446104662468C468E
:100EF0001946634600E000BF01B5FFF7B7FF0028C1
:100F000048BF10F1000F01BD4DF808EDFFF7F4FFE9
:100F10000CBF012000205DF808FB00BF4DF808ED74
:100F2000FFF7EAFF34BF012000205DF808FB00BF97
:100F30004DF808EDFFF7E0FF94BF012000205DF8B9
:100F400008FB00BF4DF808EDFFF7CEFF94BF01206E
:100F500000205DF808FB00BF4DF808EDFFF7C4FF67
:100F600034BF012000205DF808FB00BF4FEA410CB0
:100F70007FEA6C5C02D150EA013C0AD14FEA430C93
:100F80007FEA6C5C02D152EA033C02D14FF00000D0
:100F900070474FF0010070474FEA410212F500120E
:100FA00015D211D56FF47873B3EB625212D94FEAB0
:100FB000C12343F0004343EA505311F0004F23FA9A
:100FC00002F018BF404270474FF00000704750EAEF
:100FD000013005D111F0004008BF6FF000407047AC
:100FE0004FF00000704700BF0348044B834202D01B
:100FF000034B03B118477047CC010020CC010020FF
:10100000000000000548064B1B1AD90F01EBA30195
:10101000491002D0034B03B118477047CC010020A0
:10102000CC0100200000000010B5064C237843B925
:10103000FFF7DAFF044B13B10448AFF3008001233C
:10104000237010BDCC01002000000000CC5C000823
:1010500008B5054B1BB105490548AFF30080BDE855
:101060000840FFF7CFBF00BF00000000D001002004
:10107000CC5C000840F0BF6040F40030014BD86009
:10108000704700BF00ED00E0C378F3B1144BDB689C
:10109000DB43C3F30223C3F1040C0F21D940427890
:1010A00002FA0CF283780B40134302781B01DBB287
:1010B0000C490A4482F80033037803F01F005B09EF
:1010C0000122824041F823207047037803F01F017A
:1010D0005B0901228A402033024941F823207047EE
:1010E00000ED00E000E100E008B5154B984206D0A5
:1010F000144B98420ED0144B984216D008BD0121D3
:101100004FF4007000F0AEF900214FF4007000F0D1
:10111000A9F9F3E701214FF4806000F0A3F9002161
:101120004FF4806000F09EF9E8E701214FF40040A1
:1011300000F098F900214FF4004000F093F9DDE74A
:101140000024014000280140003C014010B44268E6
:1011500022F4702222F480720B6891F804C043EAF2
:101160000C231343436083680A4A1A40CB688C6897
:10117000234391F805C043EA4C0313438360C36AD9
:1011800023F470030A7C013AD2B243EA0253C362E9
:1011900010BC7047FDF7F1FF21B1836843F00103F4
:1011A00083607047836823F001038360704783681E
:1011B00043F0080383607047836813F0080F01D081
:1011C0000120704700207047836843F00403836068
:1011D0007047836813F0040F01D00120704700208E
:1011E000704721B1836843F4A0038360704783682C
:1011F00023F4A0038360704710B509291ED9C46881
:10120000A1F10A0C0CEB4C0C4FF0070E0EFA0CFE81
:1012100024EA0E0403FA0CFC44EA0C04C460062A17
:101220001BD8436B013A02EB82021F24944023EA4D
:10123000040301FA02F21343436310BD046901EB96
:10124000410E4FF0070C0CFA0EFC24EA0C0C03FACA
:101250000EF34CEA03030361E1E70C2A0CD8036B9D
:10126000073A02EB82021F24944023EA040301FAA6
:1012700002F213430363E0E7C36A0D3A02EB820212
:101280001F24944023EA040391400B43C362D4E734
:10129000C06C80B270470368194201D001207047CA
:1012A0000020704730B5CB7803F00F02964613F05C
:1012B000100F03D091F802E04EEA020E0B78FBB15A
:1012C0000568002301E042610133072B17D8012292
:1012D0009A40B1F800C032EA0C0CF5D19C004FF0F6
:1012E0000F0C0CFA04FC25EA0C050EFA04F4254355
:1012F000CC78282CE7D0482CE6D10261E4E70560E1
:101300000B88FF2B25D94568002303E0CC78482CB7
:101310001CD00133072B1BD803F1080C012202FA61
:101320000CF2B1F800C032EA0C0CF2D19C004FF084
:101330000F0C0CFA04FC25EA0C0C0EFA04F444EA37
:101340000C05CC78282CE1D14261DFE70261E0E7AF
:10135000456030BD0161704741617047034A536881
:1013600023F4404303435360704700BF0010024022
:1013700010B4294B5B6803F00C03042B29D0082B15
:101380002AD0002B45D1254B036023494B68C3F37A
:101390000313234CE25CD2B20368D34043604A6833
:1013A000C2F30222A25CD2B223FA02F282604A683D
:1013B000C2F3C222A25CD2B2D340C3604A68C2F375
:1013C000813218498A5CD2B2B3FBF2F3036110BCDC
:1013D0007047124B0360D8E70F4A53685268C3F353
:1013E0008343023312F4803F04D10F4A02FB03F31C
:1013F0000360CAE7084A526812F4003F04D00A4A60
:1014000002FB03F30360C0E7044A02FB03F303603B
:10141000BBE7024B0360B8E70010024000127A00FD
:10142000EC5C0008E85C000800093D0021B1054AB9
:101430009369034393617047024A936923EA000367
:10144000936170470010024021B1054AD3690343FC
:10145000D3617047024AD36923EA0003D36170471E
:101460000010024021B1054AD3680343D36070479E
:10147000024AD36823EA0003D36070470010024099
:1014800000B5B0F820C01FFA8CFC2CF0010C1FFA3C
:101490008CFCA0F820C0B0F818C01FFA8CFCB0F883
:1014A00020E01FFA8EFE2CF0F30C1B019BB21343BD
:1014B0004CEA030C124A904217D0124B984214D0B7
:1014C000B0F1804F11D0A3F5983398420DD003F5B9
:1014D0008063984209D003F58063984205D02EF0CE
:1014E0000A030B4343F0010304E02EF002030B4315
:1014F00043F00103A0F818C003845DF804FB00BFAB
:10150000002C01400034014010B5B0F820C01FFA93
:101510008CFC2CF0100C1FFA8CFCA0F820C0B0F84A
:1015200018E0B0F820C01FFA8CFC0C01A4B22EF415
:10153000407E4FEA0E5E4FEA1E5E1B039BB243EAFB
:101540000E03120292B21A43134B984219D003F5BC
:101550000063984215D0B0F1804F12D0A3F59833B4
:1015600098420ED003F5806398420AD003F5806359
:10157000984206D02CF0A00C4CEA010141F0100C6E
:1015800005E02CF0200C4CEA040C4CF0100C02830B
:10159000A0F820C010BD00BF002C014010B58E4641
:1015A000B0F820C01FFA8CFC2CF4807C1FFA8CFC55
:1015B000A0F820C0B0F81CC01FFA8CFC018C89B2C6
:1015C0004FEA0E24A4B22CF0F30C1B019BB2134380
:1015D0004CEA030C124A904218D0124B984215D094
:1015E000B0F1804F12D0A3F5983398420ED003F596
:1015F000806398420AD003F58063984206D021F4B4
:10160000206343EA0E0141F4807104E021F400718B
:10161000214341F48071A0F81CC0018410BD00BFBB
:10162000002C01400034014010B5B0F820C01FFA72
:101630008CFC2CF4805C1FFA8CFCA0F820C0B0F865
:101640001CE0B0F820C01FFA8CFC0C03A4B22EF4EE
:10165000407E4FEA0E5E4FEA1E5E120292B242EAEE
:101660000E021B039BB21343144A90421DD002F595
:101670000062904219D0B0F1804F16D0A2F5983296
:10168000904212D002F5806290420ED002F5806244
:1016900090420AD02CF4007C4FEA4C4C4FEA5C4C50
:1016A00041EA0C0141F4805104E02CF40051214343
:1016B00041F480518383018410BD00BF002C0140A0
:1016C00003889BB2214A904212D002F500629042F8
:1016D0000ED0B0F1804F0BD0A2F59832904207D0D7
:1016E00002F58062904203D002F58062904203D1FD
:1016F00023F070034A881343154A904208D002F53C
:101700008062904204D023F440739BB2CA88134392
:1017100003808B8883850B8803850C4B98420FD000
:1017200003F5006398420BD003F54063984207D05D
:1017300003F58063984203D003F58063984201D19A
:101740000B7A038601238382704700BF002C01407F
:101750000010004000B5038C9BB223F480739BB251
:101760000384028C92B2B0F804E01FFA8EFEB0F847
:101770001CC01FFA8CFC2CF0730C0B884CEA030C79
:1017800022F400720B891B029BB21A434B881B0286
:101790009BB21343134A904203D002F50062904279
:1017A00017D123F400634A89120292B2134323F43F
:1017B00080638A88120292B213432EF4405E8A89B3
:1017C000120192B24EEA020ECA89120192B242EAA4
:1017D0000E0EA0F804E0A0F81CC0CA88828703841B
:1017E0005DF804FB002C01400023038043808380CC
:1017F000C380038143818381C381704700230380B9
:10180000438001228280C3800381704729B103880D
:101810009BB243F001030380704703889BB223F01F
:1018200001039BB20380704722B183899BB20B43B3
:10183000838170478389C94389B219408181704788
:1018400003899BB223F007039BB20381704710B555
:101850000489A4B2B0F818C01FFA8CFCB0F820E0DC
:101860001FFA8EFE24F007040C432CF4407C2CF06D
:10187000030C4CF4807C4CF0010C2EF0220E1B016A
:101880009BB213434EEA030E0481A0F818C0A0F8DF
:1018900020E010BD8184704781877047038B9BB225
:1018A00023F00C039BB20383038B9BB20B43038394
:1018B0007047038B9BB223F440639BB20383038B7B
:1018C0009BB2090289B20B4303837047838B9BB29F
:1018D00023F00C039BB28383838B9BB20B438383E4
:1018E0007047838B9BB223F440639BB28383838BCB
:1018F0009BB2090289B20B438383704738B5054612
:101900000C460B886BB1042B15D0082B1DD00B890E
:101910008A884988FFF788FEE1882846FFF7E1FFBB
:1019200038BD0B898A884988FFF7AAFDE1882846D7
:10193000FFF7B4FFF4E70B898A884988FFF7E4FDD5
:10194000E1882846FFF7B5FFEAE70B898A884988CE
:10195000FFF724FEE1882846FFF7B8FFE0E7C94318
:1019600089B201827047000030B587B004460D4649
:10197000038A9BB2CA8823F44053134303828389AA
:101980009BB2898828896A8901430A4323F4B053AA
:1019900023F00C031343A381A38A9BB2AA8923F4E7
:1019A00040731343A38201A8FFF7E2FC1D4B9C4246
:1019B00024D0039BA28912F4004F21D103EB8303AF
:1019C00003EB83032A689200B3FBF2F3164AA2FBEF
:1019D000031252091101642002FB1033A28912F490
:1019E000004F16D11B0132330F4AA2FB0323C3F36E
:1019F00043130B439BB2238107B030BD049BD9E74F
:101A000003EB830303EB83032A685200B3FBF2F377
:101A1000DCE7DB003233044AA2FB0323C3F34213A7
:101A20000B43E7E7003801401F85EB5129B183895B
:101A30009BB243F400538381704783899BB223F4A4
:101A400000539BB283817047C1F3421C01F01F0118
:101A500001238B40BCF1010F08D0BCF1020F07D06D
:101A600014303AB102681343036070470C30F8E752
:101A70001030F6E7026822EA030303607047C1F3FF
:101A80000801818070470388194201D00120704706
:101A90000020704782B00023019300932C4A136802
:101AA00043F4803313602A4B1B6803F40033009324
:101AB000019B01330193009B1BB9019BB3F5A06F00
:101AC000F1D1234B1B6813F4003F06D00123009390
:101AD000009B012B04D002B0704700230093F7E76E
:101AE0001C4B1A6842F010021A601A6822F00302B6
:101AF0001A601A6842F002021A60A3F580535A680D
:101B00005A605A685A605A6842F480625A605A6849
:101B100022F47C125A605A6842F4E8125A601A6839
:101B200042F080721A600A4B1B6813F0007FFAD0F3
:101B3000074B5A6822F003025A605A6842F00202C8
:101B40005A60034B5B6803F00C03082BF9D1C2E722
:101B5000001002400020024008B5FFF79BFF08BDBF
:101B600008B5104B1A6842F001021A6059680E4A13
:101B70000A405A601A6822F0847222F480321A6095
:101B80001A6822F480221A605A6822F4FE025A600F
:101B90004FF41F029A60FFF7DFFF044B4FF0006223
:101BA0009A6008BD001002400000FFF800ED00E060
:101BB00030B587B001214FF40170FFF737FC4FF4C7
:101BC0000040FFF7CBFB0223ADF8003000248DF876
:101BD000034069461648FFF765FB164D2846FFF798
:101BE00083FA01948DF808408DF809404FF4602382
:101BF0000393049401248DF8144001A92846FFF7AB
:101C0000A5FA21462846FFF7C7FA2846FFF7CFFA7C
:101C10000848FFF7D1FA0028FAD10648FFF7D4FAAE
:101C20000448FFF7D6FA0028FAD107B030BD00BF4C
:101C3000000801400024014070B500260A2415E088
:101C40000F4D0723012211462846FFF7D5FA01213F
:101C50002846FFF7C6FA02210948FFF71CFB0028B7
:101C6000F9D00748FFF714FB0644013C002CE7D1EC
:101C7000044B83FB0623F017C0EBA30080B270BDBA
:101C8000002401406766666600EBC000C0004FF0AC
:101C9000E023586100229A6105221A614FF0E02387
:101CA0001B6913F4803FF9D04FF0E02304221A613E
:101CB000704710B504E04FF47A70FFF7E5FF204657
:101CC000441E0028F7D110BD08B5074800F01AFBE4
:101CD0004FF47A70FFF7EDFF044800F013FB4FF468
:101CE0007A70FFF7E6FF08BD2C5D0008345D000840
:101CF00008B5074800F006FB4FF47A70FFF7D9FFEC
:101D0000044800F0FFFA4FF47A70FFF7D2FF08BDE5
:101D1000FC5C00080C5D0008F0B589B001210220D0
:101D2000FFF792FB01210420FFF780FB04278DF8C9
:101D30001F70C023ADF81C3003268DF81E6007A964
:101D40002348FFF7AFFA0025ADF81650ADF8125052
:101D50004FF6FF73ADF81430ADF810508DF81850F1
:101D60001C4C04A92046FFF7ABFC0DEB0700FFF766
:101D700045FDADF804500A23ADF80C300DEB07011A
:101D80002046FFF7BBFDADF804700F23ADF80C3013
:101D90000DEB07012046FFF7B1FD2B462A463146E1
:101DA0002046FFF754FD01212046FFF7D8FD012210
:101DB00011462046FFF738FD42F210712046FFF72A
:101DC00069FD01212046FFF721FD09B0F0BD00BFEC
:101DD000000801400004004000B583B00121042048
:101DE000FFF724FB10238DF807303023ADF80430C3
:101DF00003238DF8063001A90548FFF753FA8F2118
:101E000040F2CF7000F092F903B05DF804FB00BF20
:101E10000008014038B5041E0CDB0D4D102128468A
:101E2000FFF798FA20212846FFF796FAA0B200F0B3
:101E3000C5F938BD064D10212846FFF78DFA20213F
:101E40002846FFF787FA604280B200F0B7F9F0E762
:101E5000000801400023C3800381438170470000D4
:101E60002DE9704304460846B4F906602681114600
:101E7000FEF75EFBFEF7DCFC05B2E5806389AAB2E3
:101E800013441BB26381B3F5FA7F4ADD4FF4FA7352
:101E900063810F3292B21E2A4AD9B4F90000FEF7CC
:101EA00089FA0022314BFEF7C7FD80468946284655
:101EB000FEF780FA42464B46FEF7BEFD8046894655
:101EC000B4F90230B4F90A2002FB03F3284880FB7E
:101ED0000320DB17C3EBA000FEF76CFA42464B462B
:101EE000FEF71CF980468946B4F90430A81B03FBB1
:101EF00000F0FEF75FFA02460B4640464946FEF701
:101F00000BF9FEF7C1FA04461A492046FEF77CFC9D
:101F100038BB19492046FEF76DFC20BB2046BDE8C2
:101F2000708313F5FA7FB4DA4FF60C636381B0E780
:101F3000B4F90010B4F90230B4F90A2002FB03F33B
:101F40000B4A82FB0302DB17C3EBA20305FB013341
:101F5000B4F90400AD1B05FB1030FEF79FFB0446EF
:101F6000D2E7044CDAE7044CD8E700BF0000F83FA2
:101F70006766666600E0F94400E0F9C4000000000E
:101F80002DE9F0470446B0F906A0A0F808A0551ABC
:101F9000ABB22DB2C580428913441BB24381B3F565
:101FA000FA7F53DD4FF4FA7343812846FEF702FAB5
:101FB0002DA3D3E90023FEF73FFD06460F46B4F9F3
:101FC0000000FEF7F7F932463B46FEF735FD0646C0
:101FD0000F46B4F90A30B4F9020003FB00F0FEF733
:101FE000E9F923A3D3E90023FEF726FD02460B46B9
:101FF00030463946FEF792F806460F46B4F904001B
:10200000FEF7D8F91CA3D3E90023FEF715FD80469F
:102010008946A5EB0A00FEF7CDF942464B46FEF78E
:102020000BFD02460B4630463946FEF777F8FEF7C1
:102030002BFA04461249FEF7E7FB70B91149204616
:10204000FEF7D8FB58B92046BDE8F08713F5FA7FB4
:10205000ABDA4FF60C634381A7E7094CF3E7094C71
:10206000F1E700BFAFF300809A9999999999C93F18
:102070007B14AE47E17A843F9A9999999999B93F2F
:1020800000E0F94400E0F9C430B587B03A23ADF878
:102090000C304FF61B63ADF810304FF6FD73ADF802
:1020A00000300A23ADF8043008E02046FEF7C0FBFC
:1020B00000B2FFF7AFFE1420FFF7FBFD144D2A68B6
:1020C000144903A8FFF7CCFE04460022124BB3F9D3
:1020D00000106846FFF754FF01462046FEF72AFA33
:1020E00004460E4B18602D680D492846FEF778FB14
:1020F00028B90C492846FEF791FB0028D5D00020CE
:10210000FFF788FE084800F0FDF807B030BD00BFBB
:102110007C02002000003743E80100207402002008
:102120000000B44200008743605D000870B588B0CD
:1021300006460D4601210846FFF786F901210420D5
:10214000FFF774F918238DF81F300423ADF81C3005
:1021500003238DF81E3007A91748FFF7A3F84FF0A7
:102160008040FFF76DFB0024ADF81640ADF812403B
:10217000ADF81460ADF810508DF8184004A94FF078
:102180008040FFF79DFA6846FFF72EFB6023ADF80D
:102190000030ADF808400125ADF80250ADF806401A
:1021A00069464FF08040FFF7D5FA29464FF080404E
:1021B000FFF72CFB08B070BD0008014008B50146D0
:1021C0004FF08040FFF768FB08BD000070B584B099
:1021D00001210420FFF738F91A4C2046FFF730FBA5
:1021E0000025ADF80A50ADF806504CF24F33ADF86B
:1021F00008304723ADF804308DF80C5001A9204673
:10220000FFF75EFA01212046FFF7A9FB01221146E4
:102210002046FFF709FB4FF4A060FEF72BFF1E23BB
:102220008DF8003001268DF803608DF801508DF88F
:1022300002506846FEF728FF31462046FFF7E6FACF
:1022400004B070BD0008004030B587B004460121DD
:1022500044F20400FFF7EAF84FF40073ADF81430CD
:1022600018238DF8173003238DF816301D4D05A95E
:102270002846FFF717F84FF48063ADF814300423B5
:102280008DF8173005A92846FFF70CF801940024B3
:10229000ADF80840ADF80A40ADF80C40ADF810407C
:1022A0000C23ADF80E3005F5405501A92846FFF77F
:1022B0005BFB012240F225512846FFF7C5FB252391
:1022C0008DF800308DF801408DF8024001248DF822
:1022D00003406846FEF7D8FE21462846FFF7A6FBD6
:1022E00007B030BD0008014008B501460448FFF7BB
:1022F000C6FB40210248FFF7C6FB0028F9D008BD05
:102300000038014010B5044602E00134FFF7ECFF4D
:1023100020780028F9D110BD08B5642200210348B7
:1023200001F077FD024B00221A7008BDEC0100207D
:10233000EA0100200C480D490D4A002302E0D45860
:10234000C4500433C4188C42F9D30A4A0A4C0023FF
:1023500001E013600432A242FBD3FFF701FC01F05D
:10236000EFFD00F00DF8704700000020CC010020C8
:1023700064620008CC010020D4030020FEE70000C6
:1023800038B5764B3A221A804FF61B629A80744B0E
:102390004FF6FD721A800A229A80FFF709FCFFF7B8
:1023A0001BFDFFF7B9FC4FF4E130FFF74DFF40F69E
:1023B000B830FFF77EFCFFF787FCFFF799FC694810
:1023C000FFF7A0FFFFF738FCFEF764F9664B1860D3
:1023D000FFF7FCFE654B1B78002BFBD0634C2046BF
:1023E000FFF790FF6378313B032B00F2B480DFE806
:1023F00003F0022D47905E4B01221A70FFF78CFF0D
:102400001AE04FF44870FFF705FD4FF49670FFF7A0
:1024100050FC0020FFF7FEFCC820FFF74AFC55489F
:10242000FFF7F8FC4FF49670FFF743FC0020FFF72E
:10243000F1FCC820FFF73DFC4D4B1B78012BE0D091
:102440000020FFF7E7FCFFF767FFC3E74A4B0122D5
:102450001A70474B02221A70484B93F90030B3F1BF
:10246000FF3FF9D0444BFF221A700024444B1C60FC
:102470002046FFF7CFFC434B1C80FFF74DFFA9E739
:102480003648FFF7E7FC3648FFF7E4FC384B0322F9
:102490001A703B4B4FF6FF721A60354B1B78032BBB
:1024A00034D1394D2A6839492C48FFF7D9FC384CCA
:1024B00020600022334BB3F900102948FFF760FD7C
:1024C000344B18602168FEF735F80446324B18602B
:1024D0002D6832492846FEF783F970B930492846FD
:1024E000FEF79CF948B92046FEF7A2F900B2FFF7C3
:1024F00091FC1420FFF7DDFBCFE70020FFF78AFCFB
:102500001B4B00221A702748FFF7FCFEFFF704FF61
:1025100060E7174B04221A700FE0174BFF221A7066
:102520000024174B1C602046FFF774FC154B1C80E1
:102530001D48FFF7E7FEFFF7A7FD0F4B01221A70BA
:102540000E4B93F90030B3F1FF3FE6D1084B1B78F7
:10255000042BF5D0E1E7FFF7DFFE3BE75C0200204C
:1025600050020020745D000880020020EC01002071
:1025700068020020E0FCFFFF0000002001000020B6
:1025800078020020E80100207C0200200000374390
:10259000700200206C020020740200200000B4428F
:1025A00000008743605D0008845D000803685A00EE
:1025B0004CBF43F0004323F000431844704700BF72
:1025C0002DE9F04741B301F1FF380546164647466D
:1025D0000024E11901EBD171491005EBC10A504605
:1025E000FFF7E4FF884503464FEAC1090ED009F121
:1025F0000800B34228440BD8FFF7D8FF0138B04297
:1026000001F10104E5D35046BDE8F087B042FAD9A4
:102610008C4201D04F1EDCE74FF0000A5046BDE867
:10262000F08700BF012809D0022805D0044B0028FC
:102630000CBF184600207047024870470248704798
:102640000D2D00081D2D0008152D000830B5224B5A
:10265000044683B08D1E3BB3284601A9AFF300802A
:10266000E8B101992A46FFF7ABFF0146B8B1FFF781
:102670009DFF4B68A064012B2BD0002B26DB081D8F
:10268000FFF794FF002323650368E064002B12DB4F
:10269000FFF78CFF03460020236103B030BD002309
:1026A0000920236103B030BD0C4B0D491846C91AEF
:1026B000C9100191D6E7C3F30360FFF7B3FF031E10
:1026C0000CBF09200020236103B030BD0123081D89
:1026D000D9E700230520DFE7000000003C61000887
:1026E0005C620008036810B5DA07044606D49B074D
:1026F00000F1500009D5FEF7D5F82368590709D530
:102700001A070ED5DB0613D510BDFEF7C3F82368F4
:102710005907F5D404F1D800FEF7CCF823681A075E
:10272000F0D404F5AC70FEF7CDF82368DB06EBD4EB
:1027300004F5EC70BDE81040FEF708B903460068E8
:1027400000B11844704700BF704700BF70B5044621
:102750000E462046316CFFF779FF054698B9D6F84A
:1027600040C03246214601202369C4F814C098476E
:102770000828EED0072806D12846316CFFF7E4FF81
:10278000301DFEF77BF800F0DDFD00BF2DE9F047BE
:102790004FF0000AADF5767D0DF10C0E01F1040C41
:1027A000C768D0F8188006461446BCE80F00AEE8AB
:1027B0000F00BCE80F00AEE80F00BCE80F00AEE869
:1027C0000F009CE80F0002AD8EE80F00C5F800A0D6
:1027D00021E02B6C4FF4F472294673617CA801F060
:1027E000E4FB3146504633697CAA98478A9C82466E
:1027F000AC640120334632464946CDE90058B8471B
:10280000044630BB4FF4F47228467CA901F0CDFB9E
:10281000BAF1080F1AD13046296CFFF717FF04F1FF
:1028200009095FFA89FA04460028D2D0A96B334619
:10283000A96432460120CDE900584AF01001B8479A
:1028400038B920460DF5767DBDE8F087BAF1070F5F
:1028500005D0092420460DF5767DBDE8F087204699
:10286000296CFFF771FF03A8FEF708F8F0B54FF0E9
:10287000FF37CB6BFBB001AC0B6401F1040C0E46CF
:102880000546BCE80F000FC4BCE80F000FC4BCE84D
:102890000F000FC49CE80F00009784E80F0006E0CB
:1028A0006A4629462B6998470828044608D12846D5
:1028B0001099FFF7CBFE0028F2D009207BB0F0BDC5
:1028C0006846FFF70FFF062CF7D131462846FFF781
:1028D0003DFF00BF10B414468461DC6BC160002270
:1028E0001C64194610BCFFF751BF00BF70B54369A7
:1028F000C6680B64AEB90A46036904460D46014634
:1029000002209847072805D008280FD129462046DD
:10291000FFF71CFF3046296CFFF716FF281DFDF757
:10292000ADFF0122FFF732FF00F00CFD00F00AFDC1
:10293000C26832B1D1F83CC00022C1F840C0FFF7F4
:1029400025BFFFF793BF00BF052915D8DFE801F0C9
:102950000A031403030501207047436C009A00200A
:102960001360704743B90F2A06D800EB8202536800
:10297000009A00201360704702207047002300B5C2
:1029800085B00A4603A900911946FFF7DDFF0398B9
:1029900005B05DF804FB00BF052915D8DFE801F09C
:1029A0000A031403030501207047009B1B6843645E
:1029B0000020704743B90F2A06D8009B00EB820223
:1029C0001B6800205360704702207047002310B539
:1029D00084B003AC039200940A461946FFF7DCFF6B
:1029E00004B010BD70B54FF0FF36D36BADF5107D60
:1029F0000DF15C0E136402F1040C05460C46BCE8B4
:102A00000F00AEE80F00BCE80F00AEE80F00BCE816
:102A10000F00AEE80F009CE80F0016968EE80F003E
:102A200012E00C2116A86A46FFF7D0FF214616A82F
:102A3000A84778B969460820049B16AA9847052834
:102A4000064608D0092805D068462699FFF7FEFDFE
:102A50000028E6D0092616A8FFF744FE30460DF5FB
:102A6000107D70BD2DE9F04F1646CA6C0D4652F828
:102A7000041B89B000F0030C0692002B79D00224CD
:102A80000F0C8DF81D700904FFB2059102EB87024F
:102A9000296DBCF1020F08BFAA6B11F001088DF877
:102AA0001C4009D0304605A900F0CEFA002856D1C6
:102AB000082009B0BDE8F08F1768002FF2D0E34678
:102AC0009A4600F00801CDE90118BAF1020F4CD086
:102AD0001788548802F10409AA6C24F001030F211D
:102AE000304603EB0208FFF749FF80453BD827F04B
:102AF000010202EB0803834294BF00230123640018
:102B000004F0020407F001072743012F4ED0022FE3
:102B100035D027BBBBF1000F02D0002B40F0D48092
:102B200009F104021768002FCFD1304605A9DDF85E
:102B3000088000F089FA90B9B8F1000FB8D00F21E1
:102B40003046FFF71BFF0E2102463046FFF73EFFDF
:102B50000F2130466C4AFFF739FF072000E00920BB
:102B600009B0BDE8F08F0023C9E7546802F10809F5
:102B7000B2E70902032405918DF81D3088E7D9F8E2
:102B8000004024F00048BBF1000F47D12BB1019B5E
:102B9000002B5CD0B8F1000F59D0002C01DA09F1FC
:102BA000040908F1010209EB8202BBE7BBF1000F47
:102BB0001CD1C3B1D9F80430D9F80020991C4FEAD0
:102BC000D272CCD005F158040133049400F08F8008
:102BD00009F10400FFF7B2FD04AB01462846AFF34C
:102BE0000080002859D109F108029BE70D213046E9
:102BF000FFF7C4FE2C6A8442F5D1AB6A9945F2D145
:102C00004846FFF7D3FC0F2102463046FFF7DEFEB1
:102C10002A4600213046FFF7D9FE9EE70D213046B7
:102C2000FFF7ACFE2F6A8742B7D1AB6A9945B4D1A2
:102C300000240423C5E90B434B44C5F828806B638B
:102C4000D9F80030A34259DB01230293A9E705F12B
:102C50005803CDF80CB00024B34609F104071E4612
:102C60000BE038460496FFF769FD0022014604ABED
:102C70002846AFF30080043700BB444504F101044B
:102C8000EFD10D215846FFF779FE0246049B06203E
:102C9000C5E90823C5F8289062E704460D213046AF
:102CA000FFF76CFE049E022C08BFEE62286208BF8C
:102CB00005F12C060620C5E9096951E75E46D9F8F9
:102CC0000040DDF80CB068E74846FFF76FFC09F1FB
:102CD00004020446AA632846AFF3008000283FF4AC
:102CE0003EAF22460F213046FFF770FE35E73046F3
:102CF0000D21FFF743FE26462862DBE708F10102BB
:102D000009EB82007DE700BF000000000023FFF711
:102D1000A9BE00BF0123FFF7A5BE00BF0223FFF736
:102D2000A1BE00BF2DE9F04105461446C4B00529F7
:102D300000F2D780DFE811F012002A00D500690008
:102D400090000600836B002C40F0CB8053F8042BDE
:102D500042648363002044B0BDE8F081002B40F062
:102D6000C0804FF0010E816B2A1DA0B20EFA03FC49
:102D70001CEA000F1CBF51F8046B42F823600133BA
:102D8000102BF3D1A004E5D4A963E3E7012B4FEAAC
:102D90001447A4B200F08580052B40F0A28007EB19
:102DA0000408B8F1200F00F29C800F2F40F29B80A6
:102DB000002CCFD00268560700F11A81019302AEB1
:102DC0003046FDF77BFD4FEA440CA7F11002A86BDB
:102DD000019B0CF1FF3C06EBC2020CF1010C043A22
:102DE00000EB8C0150F8044B884242F8044FF9D1B3
:102DF000012B00F0E0800F2FA86302D822A8FDF776
:102E000051FD3046FDF756FDA4E7032B69D11FFAAB
:102E100084F808EB1443102B4FEA144461D803687C
:102E2000180700F1C08022AE3046FDF76DFD4FEA75
:102E30004801AF6B06EBC4024B1E41B1B81A1158E2
:102E4000013B42F8041B591CF9D107EBC807304677
:102E5000AF63FDF737FD7DE7002B42D1102C40D842
:102E60000368DE0600F1978022AE3046FDF778FD5C
:102E7000012700233046A96B07FA03F2224203F12F
:102E8000010305D00A4652F804CB1146C0F800C031
:102E9000042B00F10400EFD13046A963FDF756FD85
:102EA00058E73A19102A1CD8102F1AD00268D007F8
:102EB00008D5284622F0030240F8502B0193FDF775
:102EC000EDFC019B22AE30460193FDF7E7FCA96BB8
:102ED000019B002C58D104313046A963FDF7DAFC80
:102EE00038E7022037E7B8F1100F026865D9D1073B
:102EF00072D522F0010242F0020240F8502B0193F9
:102F0000FDF7D4FC2A68019B12F0040F66D122AEB3
:102F100030460193FDF7CAFC02A8FDF7CFFCC7F1CC
:102F200010025200A96B019B541EA8F1100C06EB75
:102F3000C7020134043A01EB840051F8044B81428A
:102F400042F8044FF9D1BCF1000F59D0102F3A4686
:102F500038BF10224FEA4C0C02AE103A0CF1FF3C85
:102F600006EBC20239E7284622F0010242F00202D3
:102F700040F8502B22AE0193FDF798FC3046FDF748
:102F800095FCA96B24B3019B64004FF0000C013C3D
:102F900006EBC702CDE723F01003036000F5EC70E9
:102FA000FDF7DEFC60E723F008032B6005F5AC704D
:102FB000FDF7AAFC37E722AE8DE7D107D3D422AEC6
:102FC00030460193FDF772FCA96B019B002CDBD10D
:102FD0003046FDF767FCBDE6540798D5284622F039
:102FE000040240F8D82B0193FDF768FC019B8EE7A3
:102FF00022F0040240F8D82B0193FDF75FFCDEE6D7
:10300000012B3FF468AF0F2FA9633FF6A3AEDFE7B4
:10301000027A03467AB9427AA2B14FF0030C4168B2
:10302000013A427208680A1D5A60020283F808C019
:10303000000E1A6070470068013A1A7202021A60A4
:10304000000E7047B02070472DE9F0434FF00008A4
:1030500006460D4685B02846FFF7DAFFB02804463D
:1030600000F0128107065CD500F0F003A02B1AD007
:1030700030D8802B00F08380902B27D100F00D03F7
:103080000D2B23D0002302AF194600F00F0200974A
:103090003046FFF759FC00230D22194630460097B1
:1030A000FFF77AFCD7E7C3434FF47F6203F00703CF
:1030B0001A41010702F47F6201D542F480420023E5
:1030C00030461946FFF72EFE0028C4D0092005B06F
:1030D000BDE8F083B02B69D0C02B3ED1C62800F0EC
:1030E000BF80C72800F0D58000F0F803C02B00F0A7
:1030F000E280C82800F0ED80C928E7D12846FFF714
:1031000087FF052301210446220304F00F0402F483
:1031100070220C4430462243FFF704FE00289AD068
:10312000D4E78300DBB21F1D00230DF10809194607
:103130000D223046CDF80090FFF706FC029B60069A
:103140004CBFDF1BFF1800230D2230461946CDF877
:1031500000900297FFF720FC7DE700F0F803D02BEA
:10316000B4D100F00702013205230121304642F4B8
:103170000022FFF7D7FD00283FF46DAFA6E72846F1
:10318000FFF746FF24022043B0F5004F9ED00023F6
:10319000040119463046A2B2FFF7C4FD002895D1BC
:1031A00014F4004F18BF4FF0010854E7A0F1B10329
:1031B000042B00F2B380DFE803F0491D160C030076
:1031C000002303AA009230460D221946FFF7BCFBEC
:1031D00041E70023052130461A46FFF7A3FD0028EA
:1031E0003FF439AF72E72846FFF712FF0123044688
:1031F000194689E700230DF108090D2219463046CA
:10320000CDF80090FFF7A0FB2846FFF701FF02066C
:103210004FF00207029C0BD500F07F00B840044439
:1032200028460294FFF7F4FE030607F10707F3D4DC
:103230000023B84004F5017404440D2230461946B9
:10324000CDF800900294FFF7A7FB04E72846FFF7AC
:10325000DFFE431EDBB20E2B02467FF630AF35E7B2
:103260002846FFF7D5FE04460323220304F00F048B
:1032700002F470220134194630462243FFF752FD12
:1032800000283FF4E8AE21E7B8F1000F36D0002067
:103290001DE72846FFF7BCFE431EDBB20E2B02469D
:1032A0003FF614AF002304213046FFF73BFD002812
:1032B0003FF4D1AE0AE7032300F00F02013230469B
:1032C000194642F42022FFF72DFD00283FF4C3AE3B
:1032D000FCE62846FFF79CFE0246012102F0F004BE
:1032E00002F00F0210340A440523304642EA043249
:1032F000FFF718FD00283FF4AEAEE7E602AC434608
:1033000041460E2230460094FFF71EFB0F22434633
:10331000414630460094FFF73FFBB8E700F0FC035E
:10332000B42B3FF4D3AE012300F007021A44304619
:10333000194642F40022FFF7F5FC00283FF48BAE5B
:10334000C4E600BF062008B500F094FD012002F09D
:10335000BBFC002B2DE9F0471D46BBBF03F100432A
:103360001D4600232D2388B01446B8BF1446129A78
:10337000109E1370149BDDF84CA023F02008B8F1C8
:10338000460F05D0B8F1450F00D10136022300E009
:10339000032307AA049206AACDE902A2CDE90036CA
:1033A00022462B4600F098FEB8F1470F074619D188
:1033B000119BDB070ED500EB0609002200232046F7
:1033C0002946FDF7A1FD08B1CDF81C903022079BDE
:1033D0004B451ED33846079B159ADB1B136008B07C
:1033E000BDE8F087B8F1460F00EB0609E5D1037898
:1033F000302B0AD10022002320462946FDF784FD08
:1034000018B9C6F10106CAF80060DAF8003099442C
:10341000D3E7591C07911A70D9E7F7B50029B6BF51
:103420002D232B23494209290270437029DD0DF118
:1034300007031D460A27B1FBF7F61A4607FB1614C9
:10344000303402F8014C0C46632C314603F1FF3353
:10345000F1DC3031941E03F8011C2346411CAB42C1
:103460000AD30DF109039B1AAC4288BF0023023333
:103470000344181A03B0F0BD13F8016B01F8016F93
:10348000EDE7302330318370C170031DF1E7000098
:103490002DE9F04F91B00C46DDF8688016461F46C6
:1034A000054600F0EFFC036818460893FDF7BCFAE8
:1034B00000230E93D8F800300990073323F0070358
:1034C00003F1080294F818A0D4F800B0C8F800205E
:1034D000D3E9008929F000430B93CDF828804FF001
:1034E000FF32DDE90A01C4E912899C4BFDF73EFD7C
:1034F00070BBDDE90A014FF0FF32984BFDF718FD74
:1035000030BB0022002340464946FDF707FD10B1BD
:103510002D2384F84330924A924BBAF1470F8CBF67
:103520009046984603234FF0000923612BF00403D3
:10353000236033462146284600970FAA00F0D4F9AD
:10354000013040F090804FF0FF3011B0BDE8F08FB7
:1035500042464B4640464946FDF708FD48B14B46BA
:10356000002BB8BF2D23804AB8BF84F843307F4B6F
:10357000D3E763680AF0DF015A1C3FD1062363607A
:1035800000224BF48063236006920EAACDE904A2C8
:103590000DAA03920DF13302CDE901326368424670
:1035A000009328464B460A91FFF7D3FE0A998046BE
:1035B00047290D9928D1C81C02DB6368994240DD78
:1035C000AAF1020A5FFA8AFA5246013904F1500060
:1035D0000D91FFF722FF0E9A81461318012A2361ED
:1035E00002DC2268D20701D5013323619DF8333014
:1035F000002B9ED02D2384F843309AE74729BFD172
:10360000002BBDD10123BAE7BAF1650FDCD9BAF1BD
:10361000660F18D1002963680BDD216113B9226898
:10362000D00702D501330B4423614FF00009A16597
:10363000DCE713B92268D20701D50233F4E701238E
:10364000F2E74FF0670A0E9B994205DB2368216180
:10365000D807EAD54B1CE7E70029CCBF0122C1F10E
:1036600002021344E0E723685A0507D4236942465F
:1036700031462846B84701302BD164E7BAF1650FCF
:1036800040F2DC80D4E9120100220023FDF73CFC6B
:10369000002833D0012331462846354AB847013047
:1036A0003FF451AFDDE90D38434502DB2368D8070D
:1036B0000FD5DDE9082331462846B84701303FF4ED
:1036C00042AF4FF0000908F1FF3804F11A0AC8456B
:1036D00009DC23689B0700F10281E0680F9B984298
:1036E000B8BF184631E70123524631462846B8474D
:1036F00001303FF428AF09F10109E8E70D9B002BE9
:1037000038DC012331462846194AB84701303FF4D6
:103710001AAFDDE90D3959EA030302D12368D9074D
:10372000D7D5DDE9082331462846B84701303FF4B4
:103730000AAF4FF0000A04F11A0B0D9B5B42534590
:1037400001DC4B4693E701235A4631462846B847E9
:1037500001303FF4F8AE0AF1010AEEE7FFFFEF7F18
:10376000975D0008935D00089F5D00089B5D000861
:10377000A35D0008A36DDDF838A05345A8BF5346EC
:10378000002B994636DC4FF0000B29EAE97904F169
:103790001A02A36D0A93A3EB09035B4531DC0D9B71
:1037A0009A453ADC2368DA0737D40D9BAAEB030964
:1037B0000A9BAAEB03039945A8BF9946B9F1000FEC
:1037C00033DC4FF0000829EAE97904F11A0B0D9B6C
:1037D000AAEB0303A3EB090343457FF77AAF012369
:1037E0005A4631462846B84701303FF4ACAE08F19E
:1037F0000108ECE7424631462846B8470130C2D1BD
:10380000A1E60123314628460A92B84701303FF429
:103810009AAE0A9A0BF1010BBBE73146DDE90823AA
:103820002846B8470130C0D18DE60A9A4B4631464A
:1038300028464244B8470130C3D184E6DDF838A0B9
:10384000BAF1010F01DCDB0736D5012342463146D0
:103850002846B84701303FF476AEDDE9082331460B
:103860002846B84701303FF46EAED4E91201002279
:1038700000230AF1FF3AFDF747FBC0B9534608F1B0
:10388000010231462846B84701300CD15BE60123DE
:103890005A4631462846B84701303FF454AE08F145
:1038A0000108D045F3DB4B4604F15002E0E64FF04F
:1038B000000804F11A0BF4E701234246E1E7012373
:1038C0004A4631462846B84701303FF43CAE08F13D
:1038D0000108E3680F995B1A4345F0DCFDE64FF001
:1038E000000804F11909F4E72DE9F0471646984657
:1038F0008A680B6907469342B8BF1346336091F854
:1039000043200C46DDF820900AB101333360236870
:10391000990642BF336802333360256815F0060507
:1039200006D104F1190AE36832689B1AAB422BDC1A
:1039300094F843302268003B18BF0123920630D42C
:103940004146384604F14302C847013023D023687A
:10395000226903F00603042B14BF002533684FF0DF
:10396000000608BFE56804F11A0408BFED1A54F810
:10397000123C08BF25EAE5759342C4BF9B1AED18B7
:10398000B5421AD1002008E001235246414638468C
:10399000C847013003D14FF0FF30BDE8F087013553
:1039A000C1E73020E11881F843005A1C94F8451013
:1039B0002244023382F84310C2E7012322464146E3
:1039C0003846C8470130E6D00136D9E72DE9FF4730
:1039D0000F7E9146782F80460C469A460C9E01F148
:1039E000430207D8622F0AD8002F00F0D180582F49
:1039F00000F0B88004F1420684F842703AE0A7F182
:103A00006303152BF6D801A151F823F0653A00089D
:103A1000793A0008F5390008F5390008F539000849
:103A2000F5390008793A0008F5390008F539000839
:103A3000F5390008F5390008773B0008A33A00087B
:103A4000313B0008F5390008F5390008993B0008BA
:103A5000F5390008A33A0008F5390008F5390008DF
:103A6000393B000833681A1D1B68326004F14206B6
:103A700084F8423001239CE033682068191D3160CE
:103A8000060601D51D6803E04506FBD5B3F90050D5
:103A9000002D03DA2D236D4284F843300A23584861
:103AA00011E021683368080653F8045B02D4490624
:103AB00048BFADB26F2F336014BF0A2308235048AC
:103AC000002184F843106668002EA66005DB21689B
:103AD0002E4321F0040121604BD01646B5FBF3F1D3
:103AE00003FB1157C75D06F8017D2F46BB420D460B
:103AF000F4D9082B0BD12368DF0708D52369616847
:103B00009942DEBF302306F8013C06F1FF36921BD6
:103B100022614B4621464046CDF800A003AAFFF79C
:103B2000E3FE01304AD14FF0FF3004B0BDE8F0872A
:103B3000236843F0200323607827324884F84570D7
:103B4000236831681F0651F8045B02D45F0648BF42
:103B5000ADB23160D90744BF43F0200323601DB1EB
:103B60001023ADE72648E9E7236823F0200323600C
:103B7000F6E71646BDE733682568181D61693060B1
:103B80002E061B6801D5196002E06806FBD5198076
:103B9000002316462361BCE7336800211A1D3260FA
:103BA0001E686268304600F0F2F908B1801B606060
:103BB00063682361002384F84330AAE7324649460C
:103BC00040462369D0470130ADD023689B0713D40A
:103BD000E068039B9842B8BF1846A6E70123324627
:103BE00049464046D04701309DD00135E3680399EE
:103BF0005B1AAB42F2DCEBE7002504F11906F5E7AE
:103C0000A55D0008B65D0008002310B50446C0E9B4
:103C10000033C0E90433836081814366C2818361DC
:103C2000194608225C3000F0F4F80D4B2462636200
:103C30000C4BA3620C4BE3620C4B23630C4B9C427A
:103C400006D003F16802944202D0D0339C4205D1E1
:103C500004F15800BDE8104000F096B910BD00BF57
:103C60008D3D0008AF3D0008E73D00080B3E000811
:103C700084020020024A0349034800F069B800BFEB
:103C800004000020455600081400002041680C4B39
:103C900010B59942044601D001F0D4FCA168094B4B
:103CA000994202D0204601F0CDFCE168064B9942D2
:103CB00004D02046BDE8104001F0C4BC10BD00BFD8
:103CC00084020020EC0200205403002010B50B4BAE
:103CD0000B4C0C4A20461A6004210022FFF794FF87
:103CE00004F1680001220921FFF78EFF04F1D000E2
:103CF0000222BDE810401221FFF786BFBC0300205E
:103D000084020020753C0008014800F03EB900BF65
:103D1000C5030020014800F039B900BFC5030020E9
:103D200010B50446FFF7F0FF236A1BB1BDE8104051
:103D3000FFF7F0BF044B2362044B1B68002BF5D147
:103D4000FFF7C4FFF2E700BF8D3C0008BC03002072
:103D50002DE9F8430746884614460026D4E9019524
:103D6000B9F1010905D52468002CF7D13046BDE82A
:103D7000F883AB89012B07D9B5F90E30013303D095
:103D800029463846C04706436835E9E710B50C4672
:103D9000B1F90E1000F09CF80028ABBF636DA38949
:103DA0001B1823F48053ACBF6365A38110BD2DE9BC
:103DB000F0411F468B890546DB050C46164605D5A6
:103DC00002230022B1F90E1000F070F8A3893246E8
:103DD00023F48053A38128463B46B4F90E10BDE876
:103DE000F04100F09BB810B50C46B1F90E1000F090
:103DF0005DF8431CA38915BF606523F4805343F429
:103E00008053A38118BFA38110BDB1F90E1000F03B
:103E10003DB803460244934200D1704703F8011BAA
:103E2000F9E71F2938B505460C4604D91623036067
:103E30004FF0FF3038BDC26B12B152F821304BB990
:103E4000284600F069F8224601462846BDE8384079
:103E500000F050B8012B0AD0591C03D1162303607F
:103E60000120E7E70021204642F82410984700206F
:103E7000E0E70000024B01461868FFF7D2BF00BF21
:103E800010000020004870475001002038B5002382
:103E9000054D044608462B6001F0C8FE431C02D1C4
:103EA0002B6803B1236038BDC003002038B5044639
:103EB000084611460022054D2A601A4601F0DEFE32
:103EC000431C02D12B6803B1236038BDC00300201E
:103ED00038B50446084611460022054D2A601A46A8
:103EE00001F0D4FE431C02D12B6803B1236038BD1E
:103EF000C003002038B50023064D0446084611468D
:103F00002B6001F0B3FE431C02D12B6803B1236088
:103F100038BD00BFC003002001F098BE38B504468C
:103F2000084611460022054D2A601A4601F0C4FEDB
:103F3000431C02D12B6803B1236038BDC0030020AD
:103F400070B500260C4D0D4C641BA410A64209D17F
:103F500001F0BCFE00260A4D0A4C641BA410A642C8
:103F600005D170BD55F8043B98470136EEE755F88A
:103F7000043B98470136F2E75C6200085C62000887
:103F80005C62000860620008704770477047034633
:103F900010B5C9B202449342184601D1002003E093
:103FA000047801338C42F6D110BD0A44914200F1ED
:103FB000FF3300D1704710B511F8014B914203F85F
:103FC000014FF9D110BD2DE9F74F03690C69074680
:103FD000A3427EDB013CA30000F1140501F11408AB
:103FE000009305EB8403019358F8243055F82420FE
:103FF00001339A42B2FBF3F608EB84092ED34FF05B
:10400000000AC446AE46D3465CF8043B98B206FBB1
:1040100000A01B0C020C06FB0323DEF8002080B27C
:1040200092B2121A5A44DEF800004FEA134A9BB2C9
:10403000C3EB224303EB104392B242EA0342E14551
:104040004FEA234B4EF8042BDED2009BEB582BB9E2
:10405000019B043B9D421A462FD33C61384601F038
:1040600069F9002825DB2946002058F8042BD1F8EF
:1040700000C01FFA82FE1FFA8CF3A3EB0E03034469
:10408000120CC2EB234202EB1C429BB243EA0243F6
:10409000C1454FEA224041F8043BE6D255F82420BE
:1040A00005EB840322B9043B9D421A460BD33C61C5
:1040B0000136304603B0BDE8F08F1268043B002A99
:1040C000CBD1013CC6E71268043B002AEFD1013C8A
:1040D000EAE70020EEE700002DE9F04F14461D4608
:1040E000C76997B08346CDE90445239E7FB9102068
:1040F00000F0F8FD0246CBF81C0020B9EF21A84BD8
:10410000A84801F0D7FAC0E901770760C760DBF87B
:104110001C30196859B15A68012393404A608B607A
:10412000584600F0D5FE0022DBF81C301A602B1E2A
:10413000AFBF0023012223F000430593A8BF3360E3
:10414000DDF81480984BB8BF326033EA080312D10F
:1041500042F20F73229A1360C8F31303234300F053
:104160004685249BDFF844A2002B00F048850AF125
:10417000030300F042BDDDE90423CDE90C23DDE9B2
:104180000C0100220023FCF7BFFE074658B10123B3
:10419000229A1360249B13B1854B249A1360DFF895
:1041A00014A200F02CBD14AB019315AB009358463C
:1041B000DDE90C2301F06EF9C8F30A568146002EA2
:1041C00077D0DDE90C010D9BA6F2FF36C3F3130394
:1041D00043F07F5343F44013129719460022764B65
:1041E000FBF79AFF68A3D3E90023FCF725FC68A33B
:1041F000D3E90023FBF792FF044630460D46FCF757
:10420000D9F865A3D3E90023FCF716FC02460B4658
:1042100020462946FBF782FF04460D46FCF7BCFE0C
:1042200000220746002320462946FCF777FE40B1CE
:104230003846FCF7BFF822462B46FCF765FE00B96E
:10424000013F162F53D8DDE90C015C4B03EBC7038C
:10425000D3E90023FCF762FE00284AD00023013F87
:104260000F93149B9B1B5A1E46BFC3F101080023EA
:104270004FF00008099248BF0993002F3BDB099BD0
:104280000E973B44099300230A93209B092B63D884
:10429000052BC4BF043B2093209BC8BF0024A3F17F
:1042A0000203D8BF0124032B62D8DFE803F0515387
:1042B000362BDDE914631E4406F23243202BC1BFC6
:1042C000C3F1400308FA03F806F2124324FA03F399
:1042D000D6BFC3F1200348EA030004FA03F0FCF759
:1042E00059F80122A1F1F873013E129275E70123FA
:1042F000B6E70F90B5E77B420A930023A8EB0708C7
:104300000E93C2E701230B93219BFB180893013303
:10431000012B0393B8BF012306E001230B93219BDC
:10432000002B28DD0893039300210422DBF81C00F6
:1043300002F114059D4223D94160584600F088FDE2
:10434000824600283ED1024640F2AF111C4BD7E610
:104350000023E3E70023D6E7012400230B942093F6
:104360004FF0FF3300220893039312232192DBE7DF
:1043700001230B93F4E701231A4608930393F5E70F
:1043800001315200D4E700BF61436F63A787D23F7A
:10439000B3C8608B288AC63FFB799F501344D33F34
:1043A000D45D0008EB5D00080000F07FD05D0008E0
:1043B000A45D0008A35D00080000F83F405F00080E
:1043C000445E0008DBF81C301860039B0E2B00F2E3
:1043D000A180002C00F09E80002F33DD9C4B07F065
:1043E0000F0203EBC203F805D3E90034CDE906342C
:1043F0004FEA271416D5DDE90C01964B0326D3E9C5
:104400000823FCF743FCCDE9040104F00F04914DAF
:1044100054B9DDE90623DDE90401FCF737FCCDE9F9
:10442000040128E00226F2E7E10708D5DDE90601EC
:10443000D5E90023FCF700FBCDE906010136641045
:104440000835E5E700F0AF80DDE90C017C42804BE8
:1044500004F00F0203EBC203D3E90023FCF7ECFAEC
:1044600002260023CDE904017A4D2411002C40F0EE
:104470008F80002BD3D1DDE904450F9B002B00F08A
:104480009480002220462946734BFCF747FD002804
:1044900000F08B80039B002B00F08780089B002B93
:1044A00034DD7B1E20460693002229466B4BFCF729
:1044B000C3FACDE90401089C01363046FBF77AFFC8
:1044C000DDE90423FCF7B8FA0022654BFBF726FE72
:1044D0000546A1F15076002C6AD1DDE904010022E5
:1044E000604BFBF719FE02460B46CDE904232A4632
:1044F0003346FCF731FD002840F08682DDE90401F7
:104500002A4606F10043FCF709FD38BBDDE90C340F
:10451000CDE90434159B002BC0F258810E2F00F317
:1045200055814B4B03EBC703D3E90034CDE9063487
:10453000219B002B80F2E580039B002B00F3E180A0
:104540000CD1DDE906010022464BFCF775FADDE9E6
:104550000423FCF7F7FC002800F0548200242546D1
:10456000219B5646DB43069300272146584600F020
:10457000AFFC002D00F0BD802FB1AF4203D0394613
:10458000584600F0A5FC2946584600F0A1FCB0E0D2
:10459000E20705D5D5E90023FCF74EFA01230136E1
:1045A0006410083562E7022665E7039C069784E7F6
:1045B000274B0B9903EBC40353E90223544400290E
:1045C00054D000202849FCF761FB33462A46FBF70C
:1045D000A3FD5646CDE91001DDE90401FCF7DCFC42
:1045E0000546FBF7E7FE02460B46DDE90401FBF753
:1045F00093FD02460B463035CDE90423DDE9102357
:1046000006F8015BFCF78AFC002872D1DDE904237F
:1046100000201149FBF780FDDDE91023FCF77EFC4B
:10462000002840F0B480A6423FF470AFDDE91001ED
:1046300000220A4BFCF700FA0022CDE91001DDE967
:104640000401064BFCF7F8F9CDE90401C4E700BF0B
:10465000405F0008185F00080000F03F00002440A1
:1046600000001C40000014400000E03F3146284696
:10467000FCF7E2F95646CDE910011394DDE9040197
:10468000FCF78AFC0546FBF795FE02460B46DDE982
:104690000401FBF741FD02460B46303506F8015B8D
:1046A000A642CDE904234FF0000224D1DDE9100138
:1046B000B14BFBF733FD02460B46DDE90401FCF785
:1046C0004BFC002863D1DDE910230020AA49FBF749
:1046D00023FD02460B46DDE90401FCF71FFC002820
:1046E0003FF414AF139E731E139316F8013C302B46
:1046F000F8D0069F3BE0A14BFCF79EF9CDE9040101
:10470000BCE75646DDE90445DDE906232046294697
:10471000FCF7BCFAFCF740FC8046FBF74BFEDDE9FA
:104720000623FCF789F902460B4620462946FBF78B
:10473000F3FC08F13004039D06F8014BA6EB0A04D4
:10474000A54202460B4634D1FBF7E8FCDDE906231F
:1047500004460D46FCF700FCC0B9DDE906232046FF
:104760002946FCF7D1FB10B118F0010F0ED14946D4
:10477000584600F0ADFB00233370229B01371F60C9
:10478000249B002B00F03B821E6038E206973346E4
:104790001E4613F8012D392A07D19A45F8D1069AF9
:1047A0000132069230228AF800201A7801321A70FB
:1047B0009FE70022714BFCF73FF9002200230446DB
:1047C0000D46FCF7A1FB00289ED0D0E70B9A002AEB
:1047D00000F0E080209A012A00F3BF80129A002A9C
:1047E00000F0B78003F233430A9C4646099A012140
:1047F0001A4458469844099200F01EFC05465EB1E2
:10480000099B002B08DDB342A8BF3346099AA8EBE9
:104810000308F61AD31A09930A9BF3B10B9B002BDA
:1048200000F0BC808CB129462246584600F0BCFC02
:104830004A4601460546584600F014FC4946069093
:10484000584600F045FB069B99460A9B1A1B04D06C
:104850004946584600F0A8FC81460121584600F020
:10486000EBFB0E9B0446002B00F0CD811A4601465F
:10487000584600F099FC209B0446012B00F39480DD
:10488000049B002B40F08C80059BC3F31303002B8B
:1048900040F08880059B23F000431B0D1B052BB1C6
:1048A000099B08F101080133099301230A930E9B28
:1048B000002B00F0AE81236904EB8303186900F03C
:1048C0006FFBC0F12000099B184410F01F0076D048
:1048D000C0F12003042B6ADD099BC0F11C000344D6
:1048E000804406440993B8F1000F05DD494642466D
:1048F000584600F0B3FC8146099B002B05DD21469C
:104900001A46584600F0AAFC04460F9B002B58D0CC
:104910002146484600F00EFD002852DA7B1E49462B
:1049200006930A220023584600F0F4FA0B9B8146B6
:10493000002B00F07081002329460A22584600F01F
:10494000E9FA089B0546002B66DC209B022B40DC25
:1049500062E0149BC3F1360346E7039B5C1E0A9B8F
:10496000A3420DDB1C1B039B002BBFF63EAF039B3A
:10497000A8EB0306002339E70000E03F00002440D5
:104980000A9B0E9AE31A1A440A9446460024039B93
:104990000E922BE746460A9C0B9D30E70A9A57E792
:1049A000002383E7049B81E700230A9383E79AD0DF
:1049B000099A1C331A4498441E44099293E703460B
:1049C000F6E7039B0697002B20DC0893209B022B25
:1049D0001EDD089B002B7FF4C3AD214605225846FF
:1049E00000F098FA01460446484600F0A3FC00286F
:1049F0007FF7B6AD3123564606F8013B069B0133DF
:104A00000693B1E5039C06972546F3E7039B0893BD
:104A10000B9B002B00F00381002E05DD294632465A
:104A2000584600F01BFC05460A9B002B5AD05846FE
:104A3000696800F00DFA064628B9024640F2EF21F7
:104A4000824BFFF75DBB2A6905F10C01023292002F
:104A50000C30FFF7AAFA01223146584600F0FEFB5F
:104A60002F4605460AF101030393089B53440B9319
:104A7000049B03F001030A93039B2146013B484634
:104A80000493FFF7A0FA3946089000F13008484631
:104A900000F050FC2A4609902146584600F066FC7A
:104AA000C268064602BB0146484600F043FC024687
:104AB000314658460C9200F00BFA209B0C9A039E4C
:104AC00042EA03010A9B194310D1B8F1390F29D0EA
:104AD000099B002B02DD089B03F13108049B83F83E
:104AE000008042E52846BBE70122E1E7099B002B55
:104AF00004DB20990B430A990B4320D1002AEDDDFA
:104B000049460122584600F0A9FB2146814600F0A3
:104B100011FC002803DCE1D118F0010FDED0B8F160
:104B2000390FD8D13923049A137033461E4616F82C
:104B3000012C013B392A51D001321A7015E5002AA7
:104B400007DDB8F1390FEDD0049A08F101031370B5
:104B50000BE5039B0B9A03F8018C934228D049463E
:104B600000230A22584600F0D5F9AF4281464FF0A3
:104B700000034FF00A023946584607D100F0CAF93F
:104B800007460546039B0133039375E700F0C2F91E
:104B90002946074600230A22584600F0BBF905467D
:104BA000F0E7089B0027002BCCBF1E460126564489
:104BB00049460122584600F051FB2146814600F04B
:104BC000B9FB0028B1DC02D118F0010FADD133469A
:104BD0001E4613F8012D302AFAD0C6E49A45A5D115
:104BE000069B0133069331238AF80030BDE4249BF1
:104BF000DFF85CA01BB10AF10803249A1360504649
:104C000017B0BDE8F08F209B012B7FF739AE0E9BCC
:104C10000A93012057E6089B002B7FF7D7AE564634
:104C200021464846FFF7CFF900F13008089B06F807
:104C3000018BA6EB0A029342B3DD494600230A2208
:104C4000584600F067F98146EAE700BF445E000875
:104C5000C75D000838B50546002940D051F8043C2E
:104C60000C1F002BB8BFE41800F0E6F81C4A1368CC
:104C700033B9636014602846BDE8384000F0E2B8FC
:104C8000A34208D9206821188B4201BF19685B68CC
:104C900009182160EDE71A465B680BB1A342FAD907
:104CA00011685018A0420BD120680144501883426B
:104CB0001160E0D118685B68084410605360DAE75F
:104CC00002D90C232B60D6E7206821188B4201BF44
:104CD00019685B680918216063605460CBE738BDD0
:104CE000CC030020024B0146186800F025B800BF35
:104CF0001000002070B50F4E0C463168054611B902
:104D000000F0C8FC30602146284600F0C3FC431C7C
:104D100003D14FF0FF34204670BDC41C24F00304BF
:104D2000A042F8D0211A284600F0B4FC0130F2D19C
:104D3000EFE700BFC80300202DE9F843CD1C25F0A4
:104D4000030508350C2D38BF0C25002D064601DB68
:104D5000A94204D90C2333600020BDE8F883DFF8B2
:104D6000D48000F069F8D8F800301C4644BB2946CE
:104D70003046FFF7BFFF431C044658D1D8F8004027
:104D80002746002F43D1002C4BD0236839463046AC
:104D900004EB030900F07EFC814542D121683046D6
:104DA0006D1A2946FFF7A6FF01303AD023682B443D
:104DB0002360D8F800305A6862BBC8F800700FE072
:104DC0002268521B20D40B2A17D96119A3422560EF
:104DD00018BF5960636808BFC8F8001062514B6083
:104DE000304600F02FF804F10B00231D20F00700DF
:104DF000C21A1CBF1B1AA350AFE76268A3420CBFC4
:104E0000C8F800205A60EBE723466468AEE73C46EA
:104E10007F68B6E71A465B68A342FBD10023536064
:104E2000DEE70C233046336000F00CF894E70560B1
:104E3000D6E700BFCC0300200148FFF7A6B800BFAB
:104E4000C40300200148FFF7A1B800BFC40300203D
:104E500070B5C66904460D4676B91020FFF742FFCB
:104E60000246E06120B96B21174B184800F022FC84
:104E7000C0E901660660C660E669F36883B1E3696C
:104E8000DB6853F82500B8B9012101FA05F6721D57
:104E90002046920000F02CFC60B1C0E901560EE003
:104EA00021220421204600F023FCE369F060DB6846
:104EB000002BE4D1002070BD026843F825200023B8
:104EC000C0E90333F7E700BFD45D0008555E000872
:104ED00070B5C66905460C4676B91020FFF702FF8B
:104EE0000246E86120B98F21084B094800F0E2FB37
:104EF000C0E901660660C6603CB1EB696268DB68C8
:104F000053F82210216043F8224070BDD45D0008A0
:104F1000555E00082DE9F04107460C461E4600206C
:104F20000D6901F1140CDCF80030013099B202FB7C
:104F300001611E0C0B0C02FB063389B201EB03412D
:104F400085424FEA13464CF8041BECDC0EB3A36811
:104F5000AB4219DC616838460131FFF779FF8046C2
:104F600028B90246BA210C4B0C4800F0A3FB226979
:104F700004F10C01023292000C30FFF716F82146C2
:104F80003846FFF7A5FF444604EB850301355E6113
:104F900025612046BDE8F081445E0008555E0008AA
:104FA0000346B0F5803F3ABF030410200020B3F160
:104FB000807F3CBF1B020830B3F1805F3CBF1B0108
:104FC0000430B3F1804F3CBF9B000230002B05DB67
:104FD00013F0804F00F1010008BF202070470368E4
:104FE000024613F007000BD0D90721D4980749BF18
:104FF0005B089B08012013605CBF022013607047B0
:1050000099B209B910201B0CD9B209B908301B0A92
:10501000190704BF1B090430990704BF9B0802301D
:10502000D90703D45B0800F1010003D01360704777
:10503000002070472020704710B50C460121FFF773
:1050400007FF024628B940F24511044B044800F01E
:1050500031FB01234461036110BD00BF445E0008C1
:10506000555E00082DE9F04F17460A693B698946ED
:105070009A42A2BF3B460F4699463D69D9F810A017
:10508000BB68796805EB0A06B34285B0B8BF013149
:10509000FFF7DEFE30B902464FF4B171404B414894
:1050A00000F008FB00F114042346002204EB860EF6
:1050B000734520D307F1140809F1140108EB8505A5
:1050C00001EB8A030293EB1B153B23F0030304332C
:1050D0001537BD4238BF04230193029B03918B42D5
:1050E0000CD8002E03DD5EF8043D002B55D0066180
:1050F00005B0BDE8F08F43F8042BD9E7B1F800A064
:10510000BAF1000F1FD0C446A14600275CF8042B5B
:10511000D9F800301FFA82FB9BB20AFB0B333B44E9
:10512000D9F80070120C3F0C0AFB027202EB13421A
:105130009BB243EA024365454FEA124749F8043BF4
:10514000E4D8019BE750039B0431B3F80290B9F116
:10515000000F20D04746A4464FF0000A2368B7F856
:1051600000B0BCF802209BB209FB0B22524443EA78
:1051700002434CF8043B57F8043B4FEA134ABCF88F
:105180000030BD4209FB0A3303EB12434FEA134AD6
:10519000E5D8019AA35004349FE7013EA1E700BF80
:1051A000445E0008555E00082DE9F843154612F0EC
:1051B000030207460E4607D0254C013A002354F857
:1051C0002220FFF7A7FE0646AD103DD0FC697CB952
:1051D0001020FFF787FD0246F86128B940F2B311AD
:1051E0001C4B1D4800F066FAC0E901440460C4602D
:1051F000D7F81C80D8F808404CB940F271213846E5
:10520000FFF71AFF00230446C8F8080003604FF0B8
:105210000009EB070AD5314622463846FFF722FF40
:10522000804631463846FFF753FE46466D100BD098
:10523000206838B9224621463846FFF713FF206020
:10524000C0F800900446E4E73046BDE8F88300BFAC
:10525000085F0008D45D0008555E00082DE9F0479E
:105260000C46074691462369496803EB6218A36818
:105270004FEA621A08F10106B3420BDB3846FFF72A
:10528000E7FD054648B902464FF4EF71274B284821
:1052900000F010FA01315B00EEE7002300F1140189
:1052A00000F110021846534533DB20692AEAEA7AF6
:1052B00004F1140319F01F0901EB8A0103EB800CC0
:1052C0002BD08A460022C9F1200E186800FA09F096
:1052D00010434AF8040B53F8042B9C4522FA0EF2B3
:1052E000F3D8ACEB0403153B23F00303043304F1C0
:1052F0001500604588BF0423CA500AB108F10206B0
:10530000013E384621462E61FFF7E2FD2846BDE802
:10531000F08742F8040F0133C5E7043953F8042B32
:105320009C4541F8042FF9D8EAE700BF445E000825
:10533000555E000803460A69006930B5801A0ED12F
:105340001433143103EB820401EB820154F8045D41
:1053500051F8042D954203D005D24FF0FF3030BDF7
:10536000A342F3D3FBE70120F9E700002DE9F74F53
:1053700089460646114648461446FFF7DBFF051EE0
:1053800012D129463046FFF763FD024628B940F2A4
:1053900037213E4B3E4800F08DF90123C0E904352A
:1053A000104603B0BDE8F08FBCBF4B46A146304667
:1053B000D9F80410BABF1C4601250025FFF748FDA7
:1053C000024618B940F24521304BE3E700F1140BD7
:1053D000D9F8107009F11003C5604FF0000C09F105
:1053E0001405D946266904F1140E05EB87080EEB67
:1053F00086060193019B5EF8040B53F804AF81B25B
:1054000001931FFA8AF35B1A000C6344C0EB1A4045
:1054100000EB23409BB243EA004376454FEA204C21
:1054200049F8043BE6D8331B153B23F0030315343E
:105430000433A64238BF04231D445B441E462C4659
:1054400044450ED308F10301491B21F00301033D3C
:10545000A84538BF00210B4453F8041D99B11761CA
:105460009EE7E64654F8041B1FFA81FCF444080C3E
:10547000714400EB2C4089B241EA00414FEA204CD4
:1054800046F8041BDCE7013FE6E700BF445E000886
:10549000555E00082DE97343012190469946089E08
:1054A000FFF7D6FC044630B9024640F20F31234BD9
:1054B000234800F0FFF8C9F30A55C9F313030DB1EF
:1054C00043F480130193B8F1000324D0684600939D
:1054D000FFF785FDDDE90012D8B1C0F1200302FA23
:1054E00003F30B43C24063610192019B002B0CBF8D
:1054F00001220222A3612261ADB1A5F23345054428
:105500003560C0F13500099B1860204602B0BDE847
:1055100070836161E9E701A8FFF761FD019B01224A
:1055200063612030E7E7A0F2324004EB8203306091
:105530001869FFF735FDC0EB4210E4E7445E000850
:10554000555E0008B1F90C20F8B5160705460C4663
:1055500054D44B68002B02DC0B6C002B48DDE66A50
:10556000002E45D0002312F480522F68216A2B6050
:1055700030D0626DA389590705D56368D21A636B71
:105580000BB1236CD21A00232846E66A216AB04781
:10559000431CA38906D129681D292BD8284ACA4053
:1055A000D60727D5002262602269D904226004D57B
:1055B000421C01D12B6803B96065616B2F60B9B1E2
:1055C00004F14403994202D02846FFF743FB00232D
:1055D00063630DE001232846B0470246501CC9D141
:1055E0002B68002BC6D01D2B01D0162B1DD12F6090
:1055F000002021E043F040031BB21AE00F69002FA6
:10560000F6D0930718BF00230E6808BF4B69F61B3E
:105610000F608B60002EEBDD33463A462846216A48
:10562000D4F828C0E047002807DCB4F90C3043F078
:1056300040034FF0FF30A381F8BD0744361AE9E775
:105640000100402038B50B6905460C4613B900250A
:10565000284638BD18B1036A0BB9FEF761FBB4F9EF
:105660000C30002BF3D0626ED00704D4990502D41D
:10567000A06DFEF78AFC28462146FFF763FF636EA4
:105680000546DA07E4D4A3899B05E1D4A06DFEF7B3
:105690007DFCDDE738B50023054D044608462B6048
:1056A00000F0FCFA431C02D12B6803B1236038BD23
:1056B000C00300201FB514461A46094B05461B6857
:1056C000D8684CB1074BCDE9013400912B4606490F
:1056D00000F042F8FDF736FE044B1C46F3E700BF2E
:1056E00010000020B95E0008C65E0008F45E0008E5
:1056F00070B5A1FB025434B92946FFF71DFB0646DD
:1057000028B9304670BD0C2200260260F9E72A460F
:105710002146FEF77EFBF4E782B001B901A942B150
:105720004BB113780B601278101E18BF012002B025
:1057300070471046FBE76FF00100F8E703460846A4
:1057400041B1FF2A04D98A224FF0FF301A60704716
:1057500001200A70704700000EB403B5014603AB88
:10576000054853F8042B0068019300F02FF802B0AD
:105770005DF804EB03B0704710000020936810B48C
:10578000013B002B936007DA9469A34201DB0A29ED
:1057900002D110BC00F032B91368581C10601970A7
:1057A000084610BC7047F8B506460F461446D51893
:1057B000AC4201D1002007E03A46304614F8011B04
:1057C000FFF7DCFF431CF3D1F8BD00002DE9F04FDB
:1057D0000D461446984606469DB018B1036A0BB9AB
:1057E000FEF79EFA6B6ED90705D4AB899A0502D4F1
:1057F000A86DFEF7CAFBAB891B0701D52B699BB9C6
:105800002946304600F038F970B16B6EDC0704D5DC
:105810004FF0FF301DB0BDE8F08FAB899805F7D48D
:10582000A86DFEF7B3FBF3E70023099320238DF85F
:10583000293030234FF00109CDF80C80DFF8A88122
:105840008DF82A3023469A4613F8012B0AB1252AEF
:10585000F9D1BAEB040B0BD05B4622462946304601
:10586000FFF7A1FF013000F0A780099A5A4409927E
:105870009AF80030002B00F09F8000234FF0FF3299
:10588000CDE905230AF1010A049307938DF85330FB
:105890001A935446052214F8011B5348FEF777FB70
:1058A000049AD8B9D10644BF20238DF8533013078A
:1058B00044BF2B238DF853309AF800302A2B15D093
:1058C000544600204FF00A0C079A214611F8013B7C
:1058D000303B092B4BD9B0B1079214E0A0EB080381
:1058E00009FA03F31343A2460493D2E7039B191D5D
:1058F0001B680391002BBBBF5B4242F0020207937F
:105900000793B8BF049223782E2B0AD163782A2BF1
:1059100032D1039B02341A1D1B68039243EAE373DE
:105920000593DFF8C8A0032250462178FEF72FFB2D
:1059300038B14022049BA0EB0A008240134301349B
:10594000049314F8011B062229488DF82810FEF74D
:105950001EFB00283FD0274B1BBB039B073323F0C4
:10596000070308330393099B3B4409936AE70C46FA
:1059700001200CFB0232A8E700234FF00A0C194665
:1059800001340593204610F8012B303A092A03D937
:10599000002BC6D00591C4E7044601230CFB01216E
:1059A000F0E703AB00932A463046134B04A9FDF7FA
:1059B0006FFD0746781CD6D16B6ED90705D4AB892D
:1059C0009A0502D4A86DFEF7E1FAAB895B063FF5B4
:1059D0001FAF09981EE703AB00932A463046064BDB
:1059E00004A9FDF7F3FFE4E7F55E0008FB5E00089D
:1059F000FF5E000891340008A7570008F8B50E466E
:105A00001446054618B1036A0BB9FEF789F9A36974
:105A1000A360A3891A0701D5236943B92146284603
:105A200000F02AF818B14FF0FF373846F8BD236868
:105A30002269F6B2981A63693746834205DC21462B
:105A40002846FFF7FFFD0028EDD1A368013BA360C6
:105A500023685A1C22601E706269431C9A4204D05B
:105A6000A389DB07E1D50A2EDFD121462846FFF7BF
:105A7000E9FD0028D9D0D6E738B5294B0546186886
:105A80000C4618B1036A0BB9FEF74AF9B4F90C30A9
:105A9000190722D4DA0607D409222A6043F040030A
:105AA0004FF0FF30A38133E0580712D5616B41B14D
:105AB00004F14403994202D02846FFF7CBF80023B3
:105AC0006363A38923F02403A38100236360236914
:105AD0002360A38943F00803A38123694BB9A389F9
